:100989002A2A2A204645496D2D3531202A2A2A004E
:100999002F2F206C6162382D4C4344202F2F0048A3
:1009A9006F6F726179212121203A2900474C26482D
:0509B90046203B29006F
:0F0A250001123801100E01130101140601110214
:100A0100C2B2D297C2B1D2B0309706C2B2D2B280CE
:040A1100F7D2B22244
:100A1500120A01C2B28F90C2B1C2B0D2B2C2B22222
:1009E800AF12120A15AF10120A15AF13120A15AF7B
:0909F80014120A15AF11020A15D0
:1009BE00E4FDFCC3ED9FEE6480F8EC648098501962
:1009CE00758901758CFC758A28D28C308DFDC28C90
:0909DE00C28D0DBD00010C80DA90
:0109E70022ED
:060903008B0C8A0D890E29
:10090900120A01C2B2E4F50FAB0CAA0DA90E850FAC
:10091900827583001209466023F590D2B1C2B0D224
:10092900B2C2B2E4FFFE0FBF00010EBE1BF8BF58F2
:0C093900F57F057E001209BE050F80CC82
:01094500228F
:10088C00E4F5087509C0750A90750BD0F582F583EF
:10089C001209E8AF13120A15AF08120A157BFF7A7A
:1008AC00097989120903AF09120A157BFF7A0979B4
:1008BC0099120903AF0A120A157BFF7A0979A8125B
:1008CC000903AF0B120A157BFF7A0979B5120903DC
:1008DC007F037E001209BEE4F583F582AF82AE83FE
:1008EC00EE3395E0FDFC7B707A1179017800D31220
:0708FC000973409FA380E592
:03000000020800F3
:0C080000787FE4F6D8FD758114020847EB
:10094600BB010CE58229F582E5833AF583E0225066
:1009560006E92582F8E622BBFE06E92582F8E222B0
:0D096600E58229F582E5833AF583E49322CA
:10097300EB9FF5F0EA9E42F0E99D42F0EC6480C8FB
:0609830064809845F0229B
:10080C0002088CE493A3F8E493A34003F68001F26E
:10081C0008DFF48029E493A3F85407240CC8C333ED
:10082C00C4540F4420C8834004F456800146F6DFBC
:10083C00E4800B0102040810204080900A25E47E1D
:10084C00019360BCA3FF543F30E509541FFEE493B1
:10085C00A360010ECF54C025E060A840B8E493A378
:10086C00FAE493A3F8E493A3C8C582C8CAC583CAA3
:10087C00F0A3C8C582C8CAC583CADFE9DEE780BE5B
:010A340000C1
:00000001FF
