:0E168D00120F3E12106D8E2B8F2CAF22AE214D
:10169B00E4FDFCC3ED9FEE6480F8EC648098501978
:1016AB00758901758CD8758AF0D28C308DFDC28C02
:0916BB00C28D0DBD00010C80DAA6
:0116C4002203
:10080000752100752232E4F529F52AAC29AD2AECD0
:100810001210348F368E358D348C337F007E007D00
:10082000007C401214DC12106D8FB0121697052A4E
:10083000E52A70020529C39408E529648094804064
:10084000CA752B00752C01752900752A01AC29ADDC
:100850002AEC1210348F368E358D348C337F007E27
:10086000007D007C401214DCC004C005C006C00737
:10087000AC2BAD2CEC121034D003D002D001D00040
:10088000120F3E12106D8FB0AC29AD2AEC1210344D
:100890008F368E358D348C337F007E007D007C401A
:1008A0001214DC121690052AE52A70020529C39459
:1008B00008E529648094804094752B00752C03759D
:1008C0002900752A02AC29AD2AEC1210348F368E1D
:1008D000358D348C337F007E007D007C401214DC2B
:1008E000C004C005C006C007AC2BAD2CEC12103400
:1008F000D003D002D001D000120F3E12106D8FB085
:10090000E52A24FFFDE52934FFFC1210348F368ED2
:10091000358D348C337F007E007D007C401214DCEA
:10092000C004C005C006C007AC29AD2AEC121034C3
:100930008F368E358D348C337F007E007D007C4079
:100940001214DCD003D002D001D00012168D052A7B
:10095000E52A70020529C39408E529648094805033
:10096000030208C5752B00752C07752900752A032D
:10097000AC29AD2AEC1210348F368E358D348C3381
:100980007F007E007D007C401214DCC004C005C0E6
:1009900006C007AC2BAD2CEC121034D003D002D023
:1009A00001D000120F3E12106D8FB0E52A24FFFD1A
:1009B000E52934FFFC1210348F368E358D348C339C
:1009C0007F007E007D007C401214DCC004C005C0A6
:1009D00006C007AC29AD2AEC1210348F368E358D47
:1009E000348C337F007E007D007C401214DCD00309
:1009F000D002D001D000120F3EC004C005C006C016
:100A000007E52A24FEFDE52934FFFC1210348F3659
:100A10008E358D348C337F007E007D007C40121437
:100A2000DCD003D002D001D00012168D052AE52AB1
:100A300070020529C39408E529648094805003025C
:100A40000970752B00752C0F752900752A04AC29C7
:100A5000AD2AEC1210348F368E358D348C337F00F6
:100A60007E007D007C401214DCC004C005C006C0BE
:100A700007AC2BAD2CEC121034D003D002D001D037
:100A800000120F3E12106D8FB0E52A24FFFDE529FC
:100A900034FFFC1210348F368E358D348C337F004A
:100AA0007E007D007C401214DCC004C005C006C07E
:100AB00007AC29AD2AEC1210348F368E358D348C6C
:100AC000337F007E007D007C401214DCD003D00216
:100AD000D001D000120F3EC004C005C006C007E51B
:100AE0002A24FEFDE52934FFFC1210348F368E35A2
:100AF0008D348C337F007E007D007C401214DCD06E
:100B000003D002D001D000120F3EC004C005C006C1
:100B1000C007E52A24FDFDE52934FFFC1210348FBF
:100B2000368E358D348C337F007E007D007C401204
:100B300014DCD003D002D001D00012168D052AE5B6
:100B40002A70020529C39408E52964809480500323
:100B5000020A4E752B00752C1F752900752A05ACED
:100B600029AD2AEC1210348F368E358D348C337FBC
:100B7000007E007D007C401214DCC004C005C0066D
:100B8000C007AC2BAD2CEC121034D003D002D00136
:100B9000D000120F3E12106D8FB0E52A24FFFDE544
:100BA0002934FFFC1210348F368E358D348C337F10
:100BB000007E007D007C401214DCC004C005C0062D
:100BC000C007AC29AD2AEC1210348F368E358D3427
:100BD0008C337F007E007D007C401214DCD003D07B
:100BE00002D001D000120F3EC004C005C006C007ED
:100BF000E52A24FEFDE52934FFFC1210348F368EE1
:100C0000358D348C337F007E007D007C401214DCF7
:100C1000D003D002D001D000120F3EC004C005C0E6
:100C200006C007E52A24FDFDE52934FFFC12103437
:100C30008F368E358D348C337F007E007D007C4076
:100C40001214DCD003D002D001D000120F3EC00439
:100C5000C005C006C007E52A24FCFDE52934FFFCD9
:100C60001210348F368E358D348C337F007E007DAC
:100C7000007C401214DCD003D002D001D000121648
:100C80008D052AE52A70020529C39408E5296480A8
:100C900094805003020B5F752B00752C3F75290063
:100CA000752A06AC29AD2AEC1210348F368E358D9C
:100CB000348C337F007E007D007C401214DCC00445
:100CC000C005C006C007AC2BAD2CEC121034D0030D
:100CD000D002D001D000120F3E12106D8FB0E52A65
:100CE00024FFFDE52934FFFC1210348F368E358D3C
:100CF000348C337F007E007D007C401214DCC00405
:100D0000C005C006C007AC29AD2AEC1210348F36DE
:100D10008E358D348C337F007E007D007C40121434
:100D2000DCD003D002D001D000120F3EC004C005B9
:100D3000C006C007E52A24FEFDE52934FFFC121099
:100D4000348F368E358D348C337F007E007D007C71
:100D5000401214DCD003D002D001D000120F3EC0EC
:100D600004C005C006C007E52A24FDFDE52934FFBF
:100D7000FC1210348F368E358D348C337F007E001C
:100D80007D007C401214DCD003D002D001D00012D0
:100D90000F3EC004C005C006C007E52A24FCFDE5DF
:100DA0002934FFFC1210348F368E358D348C337F0E
:100DB000007E007D007C401214DCD003D002D00104
:100DC000D000120F3EC004C005C006C007E52A24AB
:100DD000FBFDE52934FFFC1210348F368E358D343F
:100DE0008C337F007E007D007C401214DCD003D069
:100DF00002D001D00012168D052AE52A70020529BD
:100E0000C39408E529648094805003020CA37521E3
:100E10000075221E752700752806752B00752CFE9F
:100E2000E4F525F526C3E5269407E525648094803E
:100E30004003020800852B2D852C2E752900752A6C
:100E400008D3E52A9528E5276480F8E52964809889
:100E50005003020EE3852EB0E52A24FFFDE5293478
:100E6000FFFC1210348F368E358D348C337F007E2C
:100E7000007D007C401214DCC004C005C006C00721
:100E8000AC2DAD2EEC121034D003D002D001D00026
:100E9000120F3AC004C005C006C007E5282402FFAF
:100EA000E43527FEC3E52A9FFDE5299EFC12103498
:100EB0008F368E358D348C337F007E007D007C40F4
:100EC0001214DCD003D002D001D000120F3E121059
:100ED0006D8E2D8F2E121697E52A152A7002152970
:100EE000020E41E5262401FDE43525FC1210348F65
:100EF000368E358D348C337F007E007D007C401231
:100F000014DCC004C005C006C007AC2BAD2CEC122D
:100F10001034D003D002D001D000120F3A12106D5D
:100F20008E2B8F2CE5281528700215270526E5261F
:070F300070020525020E25E9
:100F37000210D9E86480F8E933E83360110460F0FF
:100F4700ED33EC337009E8FCE9FDEAFEEBFF220420
:100F570060DED3EB9FEA9EE99DE8C2E78CF0C2F71B
:100F670095F0400CE8CCF8E9CDF9EACEFAEBCFFBE7
:100F77001210A485D0F05804700320D5B3E804708C
:100F8700075002B2D50210E392D5EC0460F7E4CC27
:100F9700C0E0C398F8603B94186008400DD0E0FBB0
:100FA7000210BBE4FBFAC9FC8028E830E406E4C978
:100FB700FBE4CAFCE830E305E4C9CACBFCE8540704
:100FC7006010F8C3E913F9EA13FAEB13FBEC13FC0F
:100FD700D8F130F52FC3E49CFCEF9BFFEE9AFEEDB2
:100FE70099FDD0E0FBEF4E4D4C701222DB0302104F
:100FF700E0EC2CFCEF33FFEE33FEED33FDED30E795
:10100700EB0210BBEF2BFFEE3AFEED39FDD0E0FB14
:1010170050130BBB00030210E3ED13FDEE13FEEFBD
:0810270013FFEC13FC0210BBE7
:10102F0075F020800E75F010800575F0087D007E3C
:10103F00007F003392D530D503121379EC33401073
:10104F00EF33FFEE33FEED33FDEC33FCD5F0ED2245
:0E105F00E5F0247EA2D513CC92E7CDCEFF2281
:10106D00EDD2E7CD33EC3392D524814006E4FFFE7B
:10107D00FDFC22FCE4CFCECDCC24E0501174FF80DA
:10108D00EDC3CC13CCCD13CDCE13CECF13CF047077
:07109D00F030D5DE021379EB
:1014DC008F328E318D308C2FE4FFFE7D807C3FABC4
:1014EC0032AA31A930A82F12120E7009AF32AE31C8
:1014FC00AD30AC2F22AF32AE31AD30AC2F1210EE7E
:10150C00FBAF36AE35AD34AC331210EEFFBF010875
:10151C00E4FFFE7D807C3F22EF64046022EB6404D8
:10152C00601DBB0127E4FFFEFDFCAB36AA35A934D8
:10153C00A83312120E60084006E4FFFEFDFC227474
:10154C00FFF536F535F534F5330215EAE4F537F5E4
:10155C0038FFFEFDFCAB32AA31A930A82F12120EB7
:10156C00504BAF36AE35AD34AC3312106D8E378F69
:10157C0038AC37AD38EC121034C8ECC8C9EDC9CA58
:10158C00EECACBEFCBAF36AE35AD34AC33120F3A2F
:10159C00E4FBFAF9F812120E70A5AF32AE31AD3091
:1015AC00AC2F12127B8F328E318D308C2FAF32AE2E
:1015BC0031AD30AC2F1213DBAB36AA35A934A833BE
:1015CC0012110812162B8F368E358D348C33E5386C
:1015DC0030E00B12127B8F368E358D348C33AF3658
:0715EC00AE35AD34AC332233
:1010A400E9D2E7C933E833F892D5EDD2E7CD33EC92
:0710B40033FC5002B2D5220B
:1010BB00EC30E7100FBF000C0EBE00080DBD000496
:1010CB000BEB6014A2D5EB13FCED92E7FD2274FF42
:1010DB00FCFDFEFF22E480F8A2D574FF13FC7D809B
:0310EB00E480EFAF
:1010EE00ED33EC33601004700FED547F7005740215
:0A10FE0092E0227404220422E4228E
:10110800EC4D6011E8497017ED33EC3304600DE4E1
:10111800FCFFFEFD22E933E8330470F80210D9120F
:1011280010A458046009E4CC248150062850090210
:1011380010E32840030210E0C0E0EB4A7044B98095
:1011480006D0E0FB0210CFEF4E701CBD8008EBFF0D
:10115800EAFEE9FD80EBE98DF0A4FEE5F00211F16D
:10116800E9CDF9EAFEEBFFEF89F0A4FCE5F0CE89C2
:10117800F0A42EFFE435F0CD89F0A42DFEE435F07F
:101188008067EF4E7005BD80D780C3EF8BF0A4ACAD
:10119800F0EE8BF0A42CFCE435F0F8EF8AF0A42CE8
:1011A800E5F038FCE433CB8DF0A42CFCE5F03BF8FB
:1011B800EE8AF0A42CFCE5F038F8E433CF89F0A4EB
:1011C8002CFCE5F038CF3400CE89F0A42FFFE5F0F1
:1011D8003EFEE433C98DF0A42EFEE5F039CD8AF049
:1011E800A42FFFE5F03EFEE43DFD33D0E0FB5007C1
:1011F8000BBB000F0210E3EC2CFCEF33FFEE33FEC9
:06120800ED33FD0210BBF6
:10120E0074F8CC6480CCC86480C8F582046043C393
:10121E00EB9FF5F0EA9E42F0E99D42F0E89C45F026
:10122E0060305018E5825FFFE582F42B5582FB504B
:10123E00210ABA001D09B90019088016E5825BFB68
:10124E00E582F42F5582FF50090EBE00050DBD003C
:10125E00010CC3EB9FF5F0EA9E42F0E99D42F0E8E7
:0D126E009C45F06007CC4820E701B3EC225E
:10127B00ED33EC33600A047003BD8004ECB2E7FC81
:01128B002240
:1015F30033DA929E35B16011377FE5FE3921848954
:101603003AAEC3FF3C1D955B3D6358473E75FDF005
:101613003F3172183F800000C2D50210E30210D997
:10162300BD80FA50F30210E0ED33EC330460F17B3C
:101633003B7AAA79B8783F121108ED33EC3392D58F
:10164300247B5011A2D570DB500BED448024045051
:1016530004A2D580CEEFFBEEFAEDF9ECF812106D93
:10166300EFF582F404FC121039120F3EC08290157C
:10167300F3740912133BED33CC33D0F092D525F03C
:0A168300A2D57001C313CC13FD22A1
:1013A7003E9248DA3ECCCCCD3F2AAAAB40000000A3
:1013B7003F8000003F9837F03FB504F33FD744FC28
:1013C7003E3172173EB172173F0515913EDE5BD96C
:1013D700D2008002C200EDD2E7F8CD33EC330470BF
:1013E7000BBD800592D50210E30210D940FBD31440
:1013F70060F2F5F07C3FEE7A00C39496C8948B4078
:10140700230AC89469C8941A401A0AC89468C894E9
:101417001F40110AC8945AC89425400805F07A005D
:10142700CDC2E7CDC0F08C398D3A8E3B8F3CEA2395
:1014370023C0E024B7F582E43413F583121397121F
:101447000F3EECC0E0EDC0E0EEC0E0EFC0E01213ED
:1014570087A839A93AAA3BAB3C120F3AD0E0FBD098
:10146700E0FAD0E0F9D0E0B2E7F812128F8C398DAC
:101477003A8E3B8F3C9013A7740312132CA839A9FB
:101487003AAA3BAB3C121108D0E0600F24C3F582A7
:10149700E43413F583121397120F3E8C398D3A8E6D
:1014A7003B8F3CD0E0C3947FFDE49400FC121034E2
:1014B7007B187A727931783F121108A839A93AAAAC
:1014C7003BAB3C120F3E30000B7BD97A5B79DE7861
:0514D7003E1211082285
:10128C000210E3EC5D046005E8590470030210D908
:10129C001210A4580460F6EC4860F2EC7004FDFEE9
:1012AC00FF22C860DB2481C85009C3986002500635
:1012BC000210E09850CAF582E9294B4A7005AB82BE
:1012CC000210CF75F0007C1A7880C3EF9BEE9AED7C
:1012DC0099400DC3EF9BFFEE9AFEED99FDE842F0AD
:1012EC00DC23ACF0D0E0FFD0E0FED0E0FDAB822000
:1012FC00E7101BEB60BAEC2CFCEF33FFEE33FEED8A
:10130C0033FD0210BBE803F830E705C0F075F000C0
:10131C00EF2FFFEE33FEED33FD40B830E7C280AA6D
:10132C00C0E0EFFBEEFAEDF9ECF8121108D0E0F5A5
:10133C00F0EFFBEEFAEDF9ECF8121387A3A3A3A3DD
:10134C00E8C0E0E9C0E0EAC0E0EBC0E0C0F0121198
:10135C0008121397A3A3A3A3120F3ED0F0D0E0FB67
:0D136C00D0E0FAD0E0F9D0E0F8D5F0D422BE
:030000000216C520
:0C16C500787FE4F6D8FD75813C02080037
:0E137900C3E49FFFE49EFEE49DFDE49CFC2285
:10138700E493FC740193FD740293FE740393FF22AC
:10139700E493F8740193F9740293FA740393FB22AC
:00000001FF
