:03000000021342A6
:0C134200787FE4F6D8FD7581620212602D
:0A134E0055203D2025332E326600A5
:10130E00D2B7C2B6D2B57590FFA297E433F508C234
:06131E00B770EDC2B5221C
:1012BD00D2B7C2B6C2B5759038C2B712130ED2B737
:1012CD00C2B6C2B575900EC2B712130ED2B7C2B662
:0A12DD00C2B5759006C2B702130EE9
:0E133400D2B7C2B6C2B5759001C2B702130E91
:10132400D2B7D2B6C2B5120CC8F590C2B702130E2A
:1011D3007522007523007524431212BD121334E4E3
:1011E300F525F52674432526F9E4FAFBC003C0026E
:1011F300C001752AFF752B13752C4EAD07AC06EC99
:101203001209ABE4FBFA797F7843120909E4FBFA8C
:1012130079A078401208008F308E2F8D2E8C2DD020
:1012230001D002D003120DC0EF2526F526EE352599
:10123300F525E4FFFEC3EF9526E5256480F8EE640B
:1012430080985018AB220524E524AA2370020523B5
:0C12530014F91213240FBF00010E80D903
:01125F00226C
:10126000E4F5A0FFFE0FBF00010EEF64644E70F5C1
:10127000E4FEFF0FBF00010EEF64644E70F505A0A1
:10128000E4FEFF0FBF00010EEF64644E70F5E580D1
:1012900020E0DDE4FEFF0FBF00010EBE03F8BFE853
:1012A000F5AFA07E001211D3E4FEFFC3EF94E8EE89
:0D12B0006480948350AA0FBF00010E80EEF1
:10080000EC4D6011E8497017ED33EC3304600DE4F2
:10081000FCFFFEFD22E933E8330470F8020A1912E6
:1008200009E458046009E4CC2481500628500902E8
:100830000A23284003020A20C0E0EB4A7044B98032
:1008400006D0E0FB020A0FEF4E701CBD8008EBFFE4
:10085000EAFEE9FD80EBE98DF0A4FEE5F00208E98F
:10086000E9CDF9EAFEEBFFEF89F0A4FCE5F0CE89D3
:10087000F0A42EFFE435F0CD89F0A42DFEE435F090
:100880008067EF4E7005BD80D780C3EF8BF0A4ACBE
:10089000F0EE8BF0A42CFCE435F0F8EF8AF0A42CF9
:1008A000E5F038FCE433CB8DF0A42CFCE5F03BF80C
:1008B000EE8AF0A42CFCE5F038F8E433CF89F0A4FC
:1008C0002CFCE5F038CF3400CE89F0A42FFFE5F002
:1008D0003EFEE433C98DF0A42EFEE5F039CD8AF05A
:1008E000A42FFFE5F03EFEE43DFD33D0E0FB5007D2
:1008F0000BBB000F020A23EC2CFCEF33FFEE33FEA0
:06090000ED33FD0209FBCE
:10090600020A23EC5D046005E859047003020A1923
:100916001209E4580460F6EC4860F2EC7004FDFE3F
:10092600FF22C860DB2481C85009C39860025006C4
:10093600020A209850CAF582E9294B4A7005AB8213
:10094600020A0F75F0007C1A7880C3EF9BEE9AEDD1
:1009560099400DC3EF9BFFEE9AFEED99FDE842F03C
:10096600DC23ACF0D0E0FFD0E0FED0E0FDAB82208F
:10097600E7101BEB60BAEC2CFCEF33FFEE33FEED19
:1009860033FD0209FBE803F830E705C0F075F00017
:10099600EF2FFFEE33FEED33FD40B830E7C280AAFD
:1009A60075F020800E75F010800575F0087D007ECC
:1009B600007F003392D530D503120D20EC33401062
:1009C600EF33FFEE33FEED33FDEC33FCD5F0ED22D5
:0E09D600E5F0247EA2D513CC92E7CDCEFF2211
:100D6400E53E242AF8E6053E227827300702782A51
:100D7400E475F001120D2E020CC82000EB7F2ED278
:100D8400008018EF540F2490D43440D4FF30040B67
:100D9400EF24BFB41A0050032461FFE53F6002153D
:100DA4003F0542E5427002054130070D7827E4759E
:100DB400F001120D2EEF020D0E0212E77403D2079A
:100DC4008003E4C207F53E8B278A288929E4F53F8E
:100DD400F541F542E53F60077F20120D9F80F575D0
:100DE40040FFC201C200C202C203C205C206C20859
:100DF400120D6DFF700D3007057F00120DB0AF426C
:100E0400AE4122B4255FC2D5C204120D6DFF24D0B9
:100E1400B40A00501A75F00A783F30D50508B6FFB9
:100E24000106C6A426F620D5047002D20380D92474
:100E3400CFB41A00EF5004C2E5D20402109DD201CF
:100E440080C6D20080C0D20280BCD2D580BAD2057E
:100E540080B47F20120D9F2002077401B53F00402B
:100E6400F1120D64FF120D9F020DD8D208D2068034
:100E740095120D64FB120D64FA120D64F94A4B705D
:100E84000679947A117BFF20022EE53F602A7E00CA
:100E94008E82758300120CE160060EEE654070F0E0
:100EA400C2D5EBC0E0EAC0E0E9C0E0EE1210FDD02C
:100EB400E0F9D0E0FAD0E0FB120CC8FF60AAEBC066
:100EC400E0EAC0E0E9C0E0120D9FD0E02401F9D0CF
:100ED400E03400FAD0E0FBE5400460DCD540D98082
:100EE40087D20280A21210E060F7E540700104127C
:100EF4000A2EA940600DE540600914F540121187DF
:100F0400EF60F3EA30E702F404C3995077EAF4257A
:100F1400400430E701E404F540800D1210E060C1A4
:100F2400EA05402540120A2EEA783DF630E701E44E
:100F3400254004D54004200501141210FDE4C0E04E
:100F4400121187783DE6601320E70714F6120D8727
:100F5400802204F6D0E014C0E07F00120D87E54043
:100F64006007120D7E1540800B300503120D7ED0F4
:100F7400E0020DD8D0E00480C51210E060A0E54086
:100F840004120A2E783DEAF6E540200502600104C9
:050F940024041210FD11
:100F990074FF04C0E0121187120D87E54020050295
:100FA9006003120D7ED0E0B540E87F45120D9178BF
:100FB9003DE67F2B30E7047F2DF404C0E0120D9F3E
:100FC900D0E075F00A84C0F0120D88D0E0120D88C7
:100FD900020DD8791080027908C206C2088008D2A9
:100FE900D5790A8004790AC2D5E540047002F54032
:100FF900E4FAFDFEFF120D64FC7B08200113120DBB
:1010090064FD7B1030000A120D64FE120D64FF7B33
:1010190020EC3382D592D55013C3E43000069FFFEC
:10102900E49EFEE42001039DFDE49CFCE4CBF8C2B0
:1010390001EC700CCFCECDCCE824F8F870F3801712
:10104900C3EF33FFEE33FEED33FDEC33FCEB33FB43
:10105900994002FB0FD8E9EB300105F8D0E0C4480C
:10106900B201C0E00AEC4D4E4F78207B0070C2EA15
:10107900B5400040BCC0E01210FFD0F0D0E0200124
:1010890004C4C0E0C4B201C0F0120D88D0F0D5F09C
:10109900EB020DD8120D3E0E75530FDC580E464C5F
:1010A9000E42420FE04F0FE8440FE8490E5B430F31
:1010B900EE550F1F460F7D450EE94711B4500E4AF4
:1010C9002D0E4E2E0E712B0E52230E6F20119D2ABE
:1010D9000E0A4800000E69E540B4FF037540061288
:1010E9000D64FC120D64FD120D64FE120D64FF788F
:1010F90036020A5D790AA2D5200314300509B91010
:10110900020404B9080104A2D520060250010420F2
:1011190002689202B53F005034C0E07F20300319C5
:101129007F30A20272067205500F121156C202C216
:1011390006C205C2087F30800F300503E9C0E012FE
:101149000D9F300503D0E0F9D0E0B53FCC3005174D
:101159007F30B9100C120D9F7F583004077F7880BB
:1011690003B90803120D9F3002057F2D020D9F7FE1
:10117900202008F87F2B2006F322920280CF7F00DF
:10118900B4070050052436F8E6FF22286E756C6C0A
:101199002900D201120D643001F8C201783F30D51F
:1011A9000108F6020E0A2D50434958120D64240312
:1011B900B405004001E49011AF93120D90743A12F6
:0A11C9000D90D203753F04020FDC05
:1009E400E9D2E7C933E833F892D5EDD2E7CD33EC59
:0709F40033FC5002B2D522D2
:1009FB00EC30E7100FBF000C0EBE00080DBD00045D
:100A0B000BEB6014A2D5EB13FCED92E7FD2274FF08
:100A1B00FCFDFEFF22E480F8A2D574FF13FC7D8061
:030A2B00E480EF75
:100A2E00F920E72824F950037907E4F42402FB188F
:100A3E00DBFDE624FB5014E9600DE4F618E604F63F
:0F0A4E00B40A08E4F6D9F57401F60A22C2D522DB
:100A5D00ED33EC3392D5FA602AB4FF33EDC2E77B68
:100A6D00FF60067A0A7982E4227A0A798B20D5040E
:100A7D007A0A7986224E614E002B494E46002D4949
:100A8D004E4600E47A08F608DAFC7B00740722E88B
:100A9D00C0E0ECC0E0EDC0E0EEC0E0EFC0E0EA7514
:100AAD00F010A4CAABF075F04DA42BFBE435F0FCAF
:100ABD00EA2410FAEB34C5FBEC34D9FCEDC2E7FFA8
:100ACD0075F056A4F42411C5F0F434C58FF0A42AA2
:100ADD00E5F03BE43CF620E714120C88D0E0FFD0A3
:100AED00E0FED0E0FDD0E0FC1209098014F4041200
:100AFD000C88D0E0FFD0E0FED0E0FDD0E0FC120885
:100B0D0000D0E0F8E6FAEDD2E7CD33EC332482FBEA
:100B1D00E4C3CF33CFCE33CECD33CD33DBF37B0731
:100B2D0075F00A846004F6081B0AE5F0F6088FF0EC
:100B3D00740AA4FFACF08EF0740AA42CFEACF05035
:100B4D00010C8DF0740AA42CFDE435F0F608DBDE03
:030B5D00740722F8
:100B6000020A19E86480F8E933E83360110460F0A0
:100B7000ED33EC337009E8FCE9FDEAFEEBFF2204FB
:100B800060DED3EB9FEA9EE99DE8C2E78CF0C2F7F6
:100B900095F0400CE8CCF8E9CDF9EACEFAEBCFFBC2
:100BA0001209E485D0F05804700320D5B3E804702E
:100BB000075002B2D5020A2392D5EC0460F7E4CCC8
:100BC000C0E0C398F8603B94186008400DD0E0FB8B
:100BD0000209FBE4FBFAC9FC8028E830E406E4C91A
:100BE000FBE4CAFCE830E305E4C9CACBFCE85407DF
:100BF0006010F8C3E913F9EA13FAEB13FBEC13FCEA
:100C0000D8F130F52FC3E49CFCEF9BFFEE9AFEED8C
:100C100099FDD0E0FBEF4E4D4C701222DB03020A2F
:100C200020EC2CFCEF33FFEE33FEED33FDED30E72F
:100C3000EB0209FBEF2BFFEE3AFEED39FDD0E0FBB6
:100C400050130BBB0003020A23ED13FDEE13FEEF5E
:080C500013FFEC13FC0209FB89
:100C58003F8000004120000042C80000447A0000A4
:100C6800461C400047C35000497424004B18968026
:100C78004CBEBC205A0E1BCA6753C21C749DC5AE1D
:100C8800FB60065407601C2323120CB6EB54386033
:100C980009120CA2120CB1120800ECF8EDF9EEFAE8
:100CA800EFCB22EB120CB180F1543803241C900CCA
:100CB80058FE93FC0EEE93FD0EEE930ECE93FF229C
:100CC800BB010689828A83E0225002E722BBFE022A
:090CD800E32289828A83E493225D
:100CE100BB010CE58229F582E5833AF583E02250C8
:100CF10006E92582F8E622BBFE06E92582F8E22212
:0D0D0100E58229F582E5833AF583E493222B
:100D0E00BB010689828A83F0225002F722BBFE01C4
:020D1E00F322BE
:0E0D2000C3E49FFFE49EFEE49DFDE49CFC22E4
:100D2E00FAE6FB0808E6F925F0F618E6CA3AF622C6
:100D3E00D083D082F8E4937012740193700DA3A344
:100D4E0093F8740193F5828883E473740293686058
:060D5E00EFA3A3A380DF58
:1012E700EFB40A07740D1212F2740A309811A89914
:1012F700B8130CC2983098FDA899C298B811F63067
:0713070099FDC299F599223E
:00000001FF
