:03000000020003F8
:0C000300787FE4F6D8FD75813302004AD6
:10010800202A081010101010101F1111111F0101C2
:100118001F1F0404040404041111110A0A0A0E1111
:0D01280011111F01011F11191915131311D9
:10008F00E4F532F533FDFC75A0FF75B0FF7B01FA87
:10009F00F582F583EB62A0AF82ED75F007A424081B
:1000AF002FF8E6F5B0E4FFFE0FBF00010EBE03F818
:1000BF00BFE8F5D3EB9480EA6480948040137A0014
:1000CF007B01E4F583F5820533E533700B05328050
:1000DF0007EB2BFBEA33FAA375A0FF75B0FFE533EF
:1000EF006419453270AEF532F5330DBD00010CEDDC
:0900FF0064064C709FFCFD809B1F
:10000F0002008FE493A3F8E493A34003F68001F278
:10001F0008DFF48029E493A3F85407240CC8C333F2
:10002F00C4540F4420C8834004F456800146F6DFC1
:10003F00E4800B0102040810204080900108E47E48
:10004F00019360BCA3FF543F30E509541FFEE493B6
:10005F00A360010ECF54C025E060A840B8E493A37D
:10006F00FAE493A3F8E493A3C8C582C8CAC583CAA8
:10007F00F0A3C8C582C8CAC583CADFE9DEE780BE60
:0101350000C9
:00000001FF
