:0D0920000B101BC0F9A4B0999282F88098CA
:03000B0002088C5C
:10088C00C0E0C083C082C0D075D008051CE51C70C8
:10089C0002051BD3941EE51B9400402D751B00759F
:1008AC001C00AB1DE51F151FAA1E7002151EF912A8
:1008BC000907F590AB1DAA1EA91F120907B41B0945
:1008CC00751D00751E00751F1AD0D0D082D083D034
:0208DC00E03208
:1008DE007B007A00791A8B1D8A1E891FE4F51BF5A1
:1008EE001C759080120907F590E4F58CF58A438902
:0908FE0001D28CD2A9D2AF80FE18
:03000000020800F3
:0C080000787FE4F6D8FD75811F020847E0
:10090700BB010689828A83E0225002E722BBFE02EE
:09091700E32289828A83E4932221
:10080C000208DEE493A3F8E493A34003F68001F21C
:10081C0008DFF48029E493A3F85407240CC8C333ED
:10082C00C4540F4420C8834004F456800146F6DFBC
:10083C00E4800B0102040810204080900920E47E23
:10084C00019360BCA3FF543F30E509541FFEE493B1
:10085C00A360010ECF54C025E060A840B8E493A378
:10086C00FAE493A3F8E493A3C8C582C8CAC583CAA3
:10087C00F0A3C8C582C8CAC583CADFE9DEE780BE5B
:01092D0000C9
:00000001FF
