:100DD2002573004C41424F5241544F524E415F4A9B
:100DE2004F42004C43445F494E464F524D41544995
:030DF2004F4E0061
:100D5700E4FDFCC3ED9FEE6480F8EC6480985019C5
:100D6700758901758CD8758AF0D28C308DFDC28C4F
:090D7700C28D0DBD00010C80DAF3
:010D80002250
:100DF500D2B7C2B6D2B57590FFA297E433F508C253
:060E0500B770EDC2B5223A
:0E0E2100D2B7C2B6C2B57590C0C2B7020DF509
:100D8100D2B7C2B6C2B5759038C2B7120DF5D2B797
:100D9100C2B6C2B575900EC2B7120DF5D2B7C2B6C2
:0A0DA100C2B5759006C2B7020DF549
:0E0E2F00D2B7C2B6C2B5759001C2B7020DF5BA
:060E0B007B007A00792053
:100E1100D2B7D2B6C2B5120CC9F590C2B7020DF560
:100B5C0075220075230075244475250075260075D3
:100B6C002754E4F52AF52BF52CF52DF52E752F329F
:100B7C0075220075230075244475250075260075B3
:100B8C0027547533FF75340D7535D27536FF7537AF
:100B9C000D7538D57B007A00794412085C8E288F4D
:100BAC0029120D81120E2FE4FFFEC3EF952BE52ABF
:100BBC006480F8EE648098500A120E0B0FBF00018F
:100BCC000E80E7E4FEFFC3E529952BFDE528952A69
:100BDC00FCC3EF9DEC6480F8EE6480985018AB2257
:100BEC000524E524AA237002052314F9120E110F13
:100BFC00BF00010E80D0052BE52B7002052AE529DC
:100C0C0024FFFDE52834FFFCD3E52B9DEC6480F834
:100C1C00E52A6480984005E4F52AF52B120E21751F
:100C2C0033FF75340D7535D27536FF75370D753844
:100C3C00E57B007A00795412085C8E288F29E4FE3B
:100C4C00FFC3EF952DE52C6480F8EE648098500A74
:100C5C00120E0B0FBF00010E80E7E4FEFFC3E52967
:100C6C00952DFDE528952CFCC3EF9DEC6480F8EEEA
:100C7C006480985018AB250527E527AA2670020535
:100C8C002614F9120E110FBF00010E80D0052DE5B0
:100C9C002D7002052CE52924FFFFE52834FFFED337
:100CAC00E52D9FEE6480F8E52C6480984005E4F512
:0D0CBC002CF52DAF2FAE2E120D57020B7C24
:03000000020E3DB0
:0C0E3D00787FE4F6D8FD758163020B5C41
:100CC900BB010689828A83E0225002E722BBFE0229
:090CD900E32289828A83E493225C
:10080000E53F2433F8E6053F22783030070278339D
:10081000E475F001120D21020CC92000EB7F2ED2ED
:10082000008018EF540F2490D43440D4FF30040BD0
:10083000EF24BFB41A0050032461FFE540600215A5
:10084000400543E5437002054230070D7830E475FA
:10085000F001120D21EF020D0F020DAB7403D20750
:100860008003E4C207F53F8B308A318932E4F540DA
:10087000F542F543E54060077F2012083B80F5759F
:1008800041FFC201C200C202C203C205C206C208C1
:10089000120809FF700D3007057F0012084CAF43A6
:1008A000AE4222B4255FC2D5C204120809FF24D08B
:1008B000B40A00501A75F00A784030D50508B6FF22
:1008C0000106C6A426F620D5047002D20380D924DE
:1008D000CFB41A00EF5004C2E5D204020A4CD20190
:1008E00080C6D20080C0D20280BCD2D580BAD205E8
:1008F00080B47F2012083B2002077401B5400040FD
:10090000F1120800FF12083B020874D208D20680D8
:1009100095120800FB120800FA120800F94A4B7001
:1009200006791D7A0B7BFF20022EE540602A7E00AF
:100930008E82758300120CE260060EEE654170F047
:10094000C2D5EBC0E0EAC0E0E9C0E0EE120A93D005
:10095000E0F9D0E0FAD0E0FB120CC9FF60AAEBC0CE
:10096000E0EAC0E0E9C0E012083BD0E02401F9D0A1
:10097000E03400FAD0E0FBE5410460DCD541D980E9
:10098000877BFF7A0A798FD202809C791080027966
:1009900008C206C2088008D2D5790A8004790AC242
:1009A000D5E541047002F541E4FAFDFEFF120800AE
:1009B000FC7B08200113120800FD7B1030000A1296
:1009C0000800FE120800FF7B20EC3382D592D55040
:1009D00013C3E43000069FFFE49EFEE42001039D64
:1009E000FDE49CFCE4CBF8C201EC700CCFCECDCC86
:1009F000E824F8F870F38017C3EF33FFEE33FEED11
:100A000033FDEC33FCEB33FB994002FB0FD8E9EBF1
:100A1000300105F8D0E0C448B201C0E00AEC4D4E08
:100A20004F78207B0070C2EAB5410040BCC0E012A4
:100A30000A95D0F0D0E0200104C4C0E0C4B201C0E7
:100A4000F0120824D0F0D5F0EB020874120D310931
:100A50001153098B5808E24C08DE42098F4F099761
:0F0A60004409974908F743099D550981460981C3
:100A6F00450981470B3D5008E62D08EA2E090D2B4D
:100A7F0008EE23090B200B262A08A64800000905BB
:100A8F003F3F3F00790AA2D5200314300509B91062
:100A9F00020404B9080104A2D52006025001042063
:100AAF0002689202B540005034C0E07F2030031935
:100ABF007F30A20272067205500F120AECC202C2F8
:100ACF0006C205C2087F30800F300503E9C0E0126F
:100ADF00083B300503D0E0F9D0E0B540CC30051726
:100AEF007F30B9100C12083B7F583004077F788095
:100AFF0003B9080312083B3002057F2D02083B7F24
:100B0F00202008F87F2B2006F322920280CF286E38
:100B1F00756C6C2900D2011208003001F8C20178FF
:100B2F004030D50108F60208A62D50434958120847
:100B3F00002403B405004001E4900B389312082CF5
:0D0B4F00743A12082CD20375400402098B81
:100CE200BB010CE58229F582E5833AF583E02250C7
:100CF20006E92582F8E622BBFE06E92582F8E22211
:0D0D0200E58229F582E5833AF583E493222A
:100D0F00BB010689828A83F0225002F722BBFE01C3
:020D1F00F322BD
:100D2100FAE6FB0808E6F925F0F618E6CA3AF622D3
:100D3100D083D082F8E4937012740193700DA3A351
:100D410093F8740193F5828883E473740293686065
:060D5100EFA3A3A380DF65
:100DAB00EFB40A07740D120DB6740A309811A89996
:100DBB00B8130CC2983098FDA899C298B811F630A8
:070DCB0099FDC299F5992280
:00000001FF
