:100CDE002573004C4142415241544F524E415F5791
:100CEE004F524B00494E464F524D4154494F4E5F65
:040CFE004C4344001F
:100D0200D2B7C2B6D2B57590FFA297E433F508C246
:060D1200B770EDC2B5222E
:100C8D00D2B7C2B6C2B5759038C2B7120D02D2B77F
:100C9D00C2B6C2B575900FC2B7120D02D2B7C2B6A9
:0A0CAD00C2B5759006C2B7020D0231
:0E0D2800D2B7C2B6C2B5759001C2B7020D02B5
:0E0D3600D2B7C2B6C2B57590C0C2B7020D02E8
:100D1800D2B7D2B6C2B5120BFFF590C2B7020D0218
:100B5C0075220075230075243E75250075260075D9
:100B6C00274E752DFF752E0C752FDE7530FF7531E8
:100B7C000C7532E17B007A00793E12085C120C8D08
:100B8C00120D28E4FDFCC3ED9FEE6480F8EC64804C
:100B9C00985018AB220524E524AA237002052314CF
:100BAC00F9120D180DBD00010C80DB120D36752DE0
:100BBC00FF752E0C752FDE7530FF75310C7532F20A
:100BCC007B007A00794E12085CE4FCFDC3ED9FEECD
:100BDC006480F8EC6480985018AB250527E527AAAB
:100BEC00267002052614F9120D180DBD00010C809B
:030BFC00DB80FE9D
:03000000020D44AA
:0C0D4400787FE4F6D8FD75815D020B5C41
:100BFF00BB010689828A83E0225002E722BBFE02F4
:090C0F00E32289828A83E4932226
:10080000E539242DF8E6053922782A300702782DBB
:10081000E475F001120C57020BFF2000EB7F2ED283
:10082000008018EF540F2490D43440D4FF30040BD0
:10083000EF24BFB41A0050032461FFE53A600215AB
:100840003A053DE53D7002053C30070D782AE47518
:10085000F001120C57EF020C45020CB77403D207DB
:100860008003E4C207F5398B2A8A2B892CE4F53AF8
:10087000F53CF53DE53A60077F2012083B80F575B1
:100880003BFFC201C200C202C203C205C206C208C7
:10089000120809FF700D3007057F0012084CAF3DAC
:1008A000AE3C22B4255FC2D5C204120809FF24D091
:1008B000B40A00501A75F00A783A30D50508B6FF28
:1008C0000106C6A426F620D5047002D20380D924DE
:1008D000CFB41A00EF5004C2E5D204020A4CD20190
:1008E00080C6D20080C0D20280BCD2D580BAD205E8
:1008F00080B47F2012083B2002077401B53A004003
:10090000F1120800FF12083B020874D208D20680D8
:1009100095120800FB120800FA120800F94A4B7001
:1009200006791D7A0B7BFF20022EE53A602A7E00B5
:100930008E82758300120C1860060EEE653B70F017
:10094000C2D5EBC0E0EAC0E0E9C0E0EE120A93D005
:10095000E0F9D0E0FAD0E0FB120BFFFF60AAEBC099
:10096000E0EAC0E0E9C0E012083BD0E02401F9D0A1
:10097000E03400FAD0E0FBE53B0460DCD53BD980F5
:10098000877BFF7A0A798FD202809C791080027966
:1009900008C206C2088008D2D5790A8004790AC242
:1009A000D5E53B047002F53BE4FAFDFEFF120800BA
:1009B000FC7B08200113120800FD7B1030000A1296
:1009C0000800FE120800FF7B20EC3382D592D55040
:1009D00013C3E43000069FFFE49EFEE42001039D64
:1009E000FDE49CFCE4CBF8C201EC700CCFCECDCC86
:1009F000E824F8F870F38017C3EF33FFEE33FEED11
:100A000033FDEC33FCEB33FB994002FB0FD8E9EBF1
:100A1000300105F8D0E0C448B201C0E00AEC4D4E08
:100A20004F78207B0070C2EAB53B0040BCC0E012AA
:100A30000A95D0F0D0E0200104C4C0E0C4B201C0E7
:100A4000F0120824D0F0D5F0EB020874120C6709FC
:100A50001153098B5808E24C08DE42098F4F099761
:0F0A60004409974908F743099D550981460981C3
:100A6F00450981470B3D5008E62D08EA2E090D2B4D
:100A7F0008EE23090B200B262A08A64800000905BB
:100A8F003F3F3F00790AA2D5200314300509B91062
:100A9F00020404B9080104A2D52006025001042063
:100AAF0002689202B53A005034C0E07F203003193B
:100ABF007F30A20272067205500F120AECC202C2F8
:100ACF0006C205C2087F30800F300503E9C0E0126F
:100ADF00083B300503D0E0F9D0E0B53ACC3005172C
:100AEF007F30B9100C12083B7F583004077F788095
:100AFF0003B9080312083B3002057F2D02083B7F24
:100B0F00202008F87F2B2006F322920280CF286E38
:100B1F00756C6C2900D2011208003001F8C20178FF
:100B2F003A30D50108F60208A62D5043495812084D
:100B3F00002403B405004001E4900B389312082CF5
:0D0B4F00743A12082CD203753A0402098B87
:100C1800BB010CE58229F582E5833AF583E0225091
:100C280006E92582F8E622BBFE06E92582F8E222DB
:0D0C3800E58229F582E5833AF583E49322F5
:100C4500BB010689828A83F0225002F722BBFE018E
:020C5500F32288
:100C5700FAE6FB0808E6F925F0F618E6CA3AF6229E
:100C6700D083D082F8E4937012740193700DA3A31C
:100C770093F8740193F5828883E473740293686030
:060C8700EFA3A3A380DF30
:100CB700EFB40A07740D120CC2740A309811A89980
:100CC700B8130CC2983098FDA899C298B811F6309D
:070CD70099FDC299F5992275
:00000001FF
