:090FDD0012083E8F90AF09AE0826
:100FE600E4FDFCC3ED9FEE6480F8EC648098501934
:100FF600758901758CD8758AF0D28C308DFDC28CBE
:09100600C28D0DBD00010C80DA61
:01100F0022BE
:100F5600E5B064FB6040750800750919E4F50AF50B
:100F66000BC3E50B9408E50A6480948050E2AC0A52
:100F7600AD0BEC1208058F138E128D118C107F00AD
:100F86007E007D007C40120DA5120FDD050BE50BE2
:100F960070CF050A80CB750800750932750A007591
:100FA6000B07D3E50B9400E50A6480948040A1AC5E
:100FB6000AAD0BEC1208058F138E128D118C107F63
:100FC600007E007D007C40120DA5120FDDE50B159D
:070FD6000B70CF150A80CB60
:1008000075F020800E75F010800575F0087D007E73
:10081000007F003392D530D503120C42EC334010E8
:10082000EF33FFEE33FEED33FDEC33FCD5F0ED227C
:0E083000E5F0247EA2D513CC92E7CDCEFF22B8
:10083E00EDD2E7CD33EC3392D524814006E4FFFEB2
:10084E00FDFC22FCE4CFCECDCC24E0501174FF8011
:10085E00EDC3CC13CCCD13CDCE13CECF13CF0470AE
:07086E00F030D5DE020C4260
:100DA5008F0F8E0E8D0D8C0CE4FFFE7D807C3FAB8E
:100DB5000FAA0EA90DA80C120A8D7009AF0FAE0E61
:100DC500AD0DAC0C22AF0FAE0EAD0DAC0C1208750F
:100DD500FBAF13AE12AD11AC10120875FFBF0108C1
:100DE500E4FFFE7D807C3F22EF64046022EB640417
:100DF500601DBB0127E4FFFEFDFCAB13AA12A91180
:100E0500A810120A8D60084006E4FFFEFDFC22745E
:100E1500FFF513F512F511F510020EB3E4F514F50F
:100E250015FFFEFDFCAB0FAA0EA90DA80C120A8D2D
:100E3500504BAF13AE12AD11AC1012083E8E148F8D
:100E450015AC14AD15EC120805C8ECC8C9EDC9CA36
:100E5500EECACBEFCBAF13AE12AD11AC10120892A8
:100E6500E4FBFAF9F8120A8D70A5AF0FAE0EAD0DC1
:100E7500AC0C120AFA8F0F8E0E8D0D8C0CAF0FAEC7
:100E85000EAD0DAC0C120CA4AB13AA12A911A8102F
:100E9500120987120EF48F138E128D118C10E51521
:100EA50030E00B120AFA8F138E128D118C10AF13CE
:070EB500AE12AD11AC1022DA
:10087500ED33EC33601004700FED547F7005740296
:0A08850092E0227404220422E4220F
:10088F00020B40E86480F8E933E83360110460F04C
:10089F00ED33EC337009E8FCE9FDEAFEEBFF2204CF
:1008AF0060DED3EB9FEA9EE99DE8C2E78CF0C2F7CA
:1008BF0095F0400CE8CCF8E9CDF9EACEFAEBCFFB96
:1008CF00120B0B85D0F05804700320D5B3E80470D9
:1008DF00075002B2D5020B4A92D5EC0460F7E4CC74
:1008EF00C0E0C398F8603B94186008400DD0E0FB5F
:1008FF00020B22E4FBFAC9FC8028E830E406E4C9C5
:10090F00FBE4CAFCE830E305E4C9CACBFCE85407B2
:10091F006010F8C3E913F9EA13FAEB13FBEC13FCBD
:10092F00D8F130F52FC3E49CFCEF9BFFEE9AFEED60
:10093F0099FDD0E0FBEF4E4D4C701222DB03020B02
:10094F0047EC2CFCEF33FFEE33FEED33FDED30E7DC
:10095F00EB020B22EF2BFFEE3AFEED39FDD0E0FB61
:10096F0050130BBB0003020B4AED13FDEE13FEEF0A
:08097F0013FFEC13FC020B2234
:10098700EC4D6011E8497017ED33EC3304600DE46A
:10099700FCFFFEFD22E933E8330470F8020B401236
:1009A7000B0B58046009E4CC248150062850090237
:1009B7000B4A284003020B47C0E0EB4A7044B9805A
:1009C70006D0E0FB020B36EF4E701CBD8008EBFF34
:1009D700EAFEE9FD80EBE98DF0A4FEE5F0020A707E
:1009E700E9CDF9EAFEEBFFEF89F0A4FCE5F0CE894B
:1009F700F0A42EFFE435F0CD89F0A42DFEE435F008
:100A07008067EF4E7005BD80D780C3EF8BF0A4AC35
:100A1700F0EE8BF0A42CFCE435F0F8EF8AF0A42C70
:100A2700E5F038FCE433CB8DF0A42CFCE5F03BF883
:100A3700EE8AF0A42CFCE5F038F8E433CF89F0A473
:100A47002CFCE5F038CF3400CE89F0A42FFFE5F079
:100A57003EFEE433C98DF0A42EFEE5F039CD8AF0D1
:100A6700A42FFFE5F03EFEE43DFD33D0E0FB500749
:100A77000BBB000F020B4AEC2CFCEF33FFEE33FEEF
:060A8700ED33FD020B221D
:100A8D0074F8CC6480CCC86480C8F582046043C31C
:100A9D00EB9FF5F0EA9E42F0E99D42F0E89C45F0AF
:100AAD0060305018E5825FFFE582F42B5582FB50D4
:100ABD00210ABA001D09B90019088016E5825BFBF1
:100ACD00E582F42F5582FF50090EBE00050DBD00C5
:100ADD00010CC3EB9FF5F0EA9E42F0E99D42F0E870
:0D0AED009C45F06007CC4820E701B3EC22E7
:100AFA00ED33EC33600A047003BD8004ECB2E7FC0A
:010B0A0022C8
:100EBC0033DA929E35B16011377FE5FE3921848992
:100ECC003AAEC3FF3C1D955B3D6358473E75FDF044
:100EDC003F3172183F800000C2D5020B4A020B4012
:100EEC00BD80FA50F3020B47ED33EC330460F17B19
:100EFC003B7AAA79B8783F120987ED33EC3392D557
:100F0C00247B5011A2D570DB500BED44802404508F
:100F1C0004A2D580CEEFFBEEFAEDF9ECF812083E08
:100F2C00EFF582F404FC12080A120896C082900EA7
:100F3C00BC7409120C04ED33CC33D0F092D525F0EF
:0A0F4C00A2D57001C313CC13FD22DF
:100C70003E9248DA3ECCCCCD3F2AAAAB40000000E1
:100C80003F8000003F9837F03FB504F33FD744FC66
:100C90003E3172173EB172173F0515913EDE5BD9AA
:100CA000D2008002C200EDD2E7F8CD33EC330470FD
:100CB0000BBD800592D5020B4A020B4040FBD314BA
:100CC00060F2F5F07C3FEE7A00C39496C8948B40B6
:100CD000230AC89469C8941A401A0AC89468C89428
:100CE0001F40110AC8945AC89425400805F07A009C
:100CF000CDC2E7CDC0F08C168D178E188F19EA2360
:100D000023C0E02480F582E4340CF583120C6012D9
:100D10000896ECC0E0EDC0E0EEC0E0EFC0E0120CE1
:100D200050A816A917AA18AB19120892D0E0FBD048
:100D3000E0FAD0E0F9D0E0B2E7F8120B588C168D4B
:100D4000178E188F19900C707403120BF5A816A942
:100D500017AA18AB19120987D0E0600F248CF5820E
:100D6000E4340CF583120C601208968C168D178EE5
:100D7000188F19D0E0C3947FFDE49400FC1208059D
:100D80007B187A727931783F120987A816A917AAB9
:100D900018AB1912089630000B7BD97A5B79DE7894
:050DA0003E120987224C
:100B0B00E9D2E7C933E833F892D5EDD2E7CD33EC30
:070B1B0033FC5002B2D522A9
:100B2200EC30E7100FBF000C0EBE00080DBD000434
:100B32000BEB6014A2D5EB13FCED92E7FD2274FFE0
:100B4200FCFDFEFF22E480F8A2D574FF13FC7D8039
:030B5200E480EF4D
:100B5500020B4AEC5D046005E859047003020B4082
:100B6500120B0B580460F6EC4860F2EC7004FDFEC5
:100B7500FF22C860DB2481C85009C3986002500673
:100B8500020B479850CAF582E9294B4A7005AB829A
:100B9500020B3675F0007C1A7880C3EF9BEE9AED58
:100BA50099400DC3EF9BFFEE9AFEED99FDE842F0EB
:100BB500DC23ACF0D0E0FFD0E0FED0E0FDAB82203E
:100BC500E7101BEB60BAEC2CFCEF33FFEE33FEEDC8
:100BD50033FD020B22E803F830E705C0F075F0009D
:100BE500EF2FFFEE33FEED33FD40B830E7C280AAAC
:100BF500C0E0EFFBEEFAEDF9ECF8120987D0E0F56D
:100C0500F0EFFBEEFAEDF9ECF8120C50A3A3A3A359
:100C1500E8C0E0E9C0E0EAC0E0EBC0E0C0F01209DE
:100C250087120C60A3A3A3A3120896D0F0D0E0FB13
:0D0C3500D0E0FAD0E0F9D0E0F8D5F0D422FC
:03000000021010DB
:0C101000787FE4F6D8FD758120020F56B1
:0E0C4200C3E49FFFE49EFEE49DFDE49CFC22C3
:100C5000E493FC740193FD740293FE740393FF22EA
:100C6000E493F8740193F9740293FA740393FB22EA
:00000001FF
